{
  "_format": "hh-sol-artifact-1",
  "contractName": "Counter",
  "sourceName": "contracts/dapp.sol",
  "abi": [
    {
      "inputs": [
        {
          "internalType": "int256",
          "name": "_number",
          "type": "int256"
        }
      ],
      "stateMutability": "nonpayable",
      "type": "constructor"
    },
    {
      "inputs": [],
      "name": "count",
      "outputs": [
        {
          "internalType": "int256",
          "name": "",
          "type": "int256"
        }
      ],
      "stateMutability": "view",
      "type": "function"
    },
    {
      "inputs": [],
      "name": "degreese",
      "outputs": [],
      "stateMutability": "nonpayable",
      "type": "function"
    },
    {
      "inputs": [],
      "name": "increese",
      "outputs": [],
      "stateMutability": "nonpayable",
      "type": "function"
    },
    {
      "inputs": [],
      "name": "owner",
      "outputs": [
        {
          "internalType": "address",
          "name": "",
          "type": "address"
        }
      ],
      "stateMutability": "view",
      "type": "function"
    },
    {
      "inputs": [],
      "name": "value",
      "outputs": [
        {
          "internalType": "int256",
          "name": "",
          "type": "int256"
        }
      ],
      "stateMutability": "view",
      "type": "function"
    }
  ],
  "bytecode": "0x608060405234801561001057600080fd5b506040516103a63803806103a683398181016040528101906100329190610095565b8060008190555033600160006101000a81548173ffffffffffffffffffffffffffffffffffffffff021916908373ffffffffffffffffffffffffffffffffffffffff160217905550506100df565b60008151905061008f816100c8565b92915050565b6000602082840312156100a757600080fd5b60006100b584828501610080565b91505092915050565b6000819050919050565b6100d1816100be565b81146100dc57600080fd5b50565b6102b8806100ee6000396000f3fe608060405234801561001057600080fd5b50600436106100575760003560e01c806306661abd1461005c5780633fa4f2451461007a5780638da5cb5b14610098578063d1de1b84146100b6578063f46fc20e146100c0575b600080fd5b6100646100ca565b604051610071919061016a565b60405180910390f35b6100826100d0565b60405161008f919061016a565b60405180910390f35b6100a06100d9565b6040516100ad919061014f565b60405180910390f35b6100be6100ff565b005b6100c8610118565b005b60005481565b60008054905090565b600160009054906101000a900473ffffffffffffffffffffffffffffffffffffffff1681565b6000808154809291906101119061020a565b9190505550565b60008081548092919061012a906101c1565b9190505550565b61013a81610185565b82525050565b61014981610197565b82525050565b60006020820190506101646000830184610131565b92915050565b600060208201905061017f6000830184610140565b92915050565b6000610190826101a1565b9050919050565b6000819050919050565b600073ffffffffffffffffffffffffffffffffffffffff82169050919050565b60006101cc82610197565b91507f80000000000000000000000000000000000000000000000000000000000000008214156101ff576101fe610253565b5b600182039050919050565b600061021582610197565b91507f7fffffffffffffffffffffffffffffffffffffffffffffffffffffffffffffff82141561024857610247610253565b5b600182019050919050565b7f4e487b7100000000000000000000000000000000000000000000000000000000600052601160045260246000fdfea2646970667358221220f2fbed6adc9997298ddc832858655724e7fb9e5153605c14429667cc4418917f64736f6c63430008040033",
  "linkReferences": {},
  "deployedLinkReferences": {}
}